:1000000033C000004CC000004AC0000048C00000DF
:1000100046C0000044C0000042C0000040C00000D4
:100020003EC000003CC000003AC0000038C00000E4
:1000300036C0000034C0000032C0000030C00000F4
:100040002EC000002CC000002AC0000028C0000004
:1000500026C0000024C0000022C0000020C0000014
:10006000EDC100001CC0000011241FBECFEFD8E07E
:10007000DEBFCDBF12E0A0E0B1E0ECE6F5E002C0EB
:1000800005900D92A638B107D9F722E0A6E8B2E0B4
:1000900001C01D92AC38B207E1F775D165C2B0CF8F
:1000A0001092C50087E68093C40088E18093C10068
:1000B00086E08093C2000895CF93C82F8A3011F450
:1000C0008DE0FADF8091C00085FFFCCFC093C600B1
:1000D000CF9108958091C00087FFFCCF8091C6002A
:1000E00008950F931F93CF93DF93EC018C01060FBC
:1000F000171FC017D10719F08991DEDFFACFDF9102
:10010000CF911F910F9108950F931F93CF93DF937A
:10011000EC018C01060F171FC017D10719F0DADFA9
:100120008993FACFDF91CF911F910F910895EF92AC
:10013000FF920F931F93CF93DF93D82FC92F7B018B
:100140008A0180E436D18D2F5ED18C2F5CD1E701FE
:100150000E0D1F1DC017D10719F0899154D1FACF88
:10016000DF91CF911F910F91FF90EF9044C1EF92DB
:10017000FF920F931F93CF93DF93D82FC92F7B014B
:100180008A0180E416D18D2F3ED18C2F3CD181E4A1
:1001900010D1E7010E0D1F1DC017D10719F044D172
:1001A0008993FACFDF91CF911F910F91FF90EF903C
:1001B00022C176DFF5C0AF92BF92CF92DF92EF926D
:1001C000FF920F931F93CF93DF93CDB7DEB7A8971E
:1001D0000FB6F894DEBF0FBECDBF6DE370E086E6CC
:1001E00091E07FDF68E070E0CE0181968DDF80E1F5
:1001F000E5EAF1E0DE01119601900D928A95E1F7B2
:1002000088E0E5EBF1E0DE01519601900D928A95D0
:10021000E1F78E010F5F1F4F5E0181E1A80EB11C57
:10022000D801ED90FD908D0189E1C82ED12CCC0E26
:10023000DD1ECE0CDF1C41E050E0B601C701805A44
:100240009E4F95DFF501EE0DFF1DD6019C9180813B
:1002500089278C930A151B0519F748E050E0BE0169
:10026000675E7F4FCE01819672D121E030E0892B0D
:1002700011F020E030E0C901A8960FB6F894DEBF77
:100280000FBECDBFDF91CF911F910F91FF90EF90E7
:10029000DF90CF90BF90AF900895CF92DF92EF9212
:1002A000FF920F931F93CF93DF93CDB7DEB7CC525E
:1002B000D1400FB6F894DEBF0FBECDBF68E370E04B
:1002C0008DE291E00EDF8E0107531F4F6E0183ED2B
:1002D000C81A8EEFD80AF80178011192EC15FD05C5
:1002E000E1F761E070E0C8010FDFD8018D918D0169
:1002F0008D3029F08A3019F0AC15BD0591F784E6F0
:10030000EDEBF1E0DE01AB59BF4F01900D928A9504
:10031000E1F784E6E1E2F2E0DE01119601900D9250
:100320008A95E1F78E010B591F4FF80181918F01DA
:1003300090E0B701680F791FE1E0F0E0EC0FFD1FDE
:10034000E80FF91FDB013C91208123272C9341E02A
:1003500050E0C096ECDE0E151F0539F76BE170E03A
:1003600080E091E0BEDEC45DDE4F0FB6F894DEBFE4
:100370000FBECDBFDF91CF911F910F91FF90EF90F6
:10038000DF90CF900895789414DF15DF892B11F05A
:1003900084DFFBCF60E170E08CE191E0A2DEF5CF7D
:1003A000E9EBF0E080818160808388E08093B80091
:1003B000089594EA9093BC009091BC0097FFFCCF05
:1003C0009091B900987F983021F0903111F081E040
:1003D00008958093BB0084E88093BC008091BC00AA
:1003E00087FFFCCF8091B900887F883111F080347D
:1003F00071F780E0089584E98093BC008091BC008F
:1004000084FDFCCF08958093BB0084E88093BC00FA
:100410008091BC0087FFFCCF9091B900987F81E06C
:10042000983209F480E0089584E88093BC008091BC
:10043000BC0087FFFCCF8091BB0008951F920F92F4
:100440000FB60F9211242F933F938F939F93EF93A7
:10045000FF938091B900883251F140F4803129F145
:10046000883129F1883009F060C01FC0803409F458
:100470004CC028F4883309F058C085EA5BC0803549
:10048000A9F1883509F051C08091BB009091860296
:10049000E0918A02F0918B02E90FF11D8083809137
:1004A00087028160809387023EC01092860280910D
:1004B000860290918902891770F4E0918A02F09186
:1004C0008B0291E0980F90938602E80FF11D8081D6
:1004D0008093BB0026C08091870281608093870251
:1004E0008091880281111FC084E824C0E0918A02B3
:1004F000F0918B028091860291E0980F9093860292
:100500009091BB00E80FF11D90832091860230E0AE
:100510008091890290E001972817390714F485EC3F
:1005200009C085E807C084E905C08091B9008093BF
:10053000A40184E08093BC00FF91EF919F918F9183
:100540003F912F910F900FBE0F901F901895FB01B8
:10055000DC0104C08D910190801921F4415050407C
:0C056000C8F7881B990B0895F894FFCF92
:10056C000A50617373776F72642073746F72656471
:10057C00207365637572656C79210A0057726F6E12
:10058C00672050617373776F7264210A000A41759A
:10059C007468656E74696361746564210A456E7470
:1005AC0065722070617373776F726420746F20733F
:1005BC0061766520286D6178203130302063686168
:1005CC007273293A20003D3D3D202057656C636FC6
:1005DC006D6520746F20414C6F636B6572207630B3
:1005EC002E3120203D3D3D0A506C656173652065C0
:1005FC006E746572207468652070617373636F64C8
:10060C00653A2000F8020005000300000001000715
:10061C00000600040061726475696E6F2130343914
:10062C00594E2D4F0F4C1855521F2C412F4A3E043A
:10063C00503F3563254D452715291E140A1901080D
:10064C0022004B465F1B120E43422A09385E1C23C4
:10065C004044025A031A075D56583D062B61481355
:10066C005326541D60103C312832160B0C5C3B1782
:10067C005747114937335B240D053A206221362E3A
:10068C0051989AFE1C1177BC9B28FBD6D53554D2B9
:10069C00FE532B78831E3D438B23373D99452FBF4B
:1006AC0010894AF44E63417A6C5CBC3691D1F94A9C
:1006BC00D9F05C760072EBCDF3FE68E8A357BF9FD0
:1006CC00B904F337024793844684D612A104A8AE2A
:1006DC0050EBAFA170CC01B6C7CBE20FDA64CAF312
:0606EC002D5B9F99210027
:00000001FF
